:1000000000308A005F280000FF00030E8301A1007A
:100010000A08A0008A010408A2007708A300780853
:10002000A4007908A5007A08A600831383128C30F7
:100030008400001C1D280C1832288B1E21280B1947
:100040003528220884002308F7002408F800250832
:10005000F9002608FA0020088A00210E8300FF0E0E
:100060007F0E09008A110A123F288A110A123828C5
:10007000FE308100A70A0B118A110A1221288E0175
:10008000F6308F003C308E00A80A270B4E28280837
:10009000C73C03184E28A7018614A8012708023C74
:1000A000031D5B28061486102808F43C031D5B28FA
:1000B0000610A701A8010C108A110A1221280308B2
:1000C0001F398300A701A80183161F149F141F1551
:1000D0009F1183130912831290010030F8009200DF
:1000E0000030831692001F149F141F159F11831256
:1000F0001F10F03097059D051030831685000030E5
:1001000086008312860183160108C73938388100BA
:10011000FE3083128100B53090008E01F6308F00E2
:100120003C308E008B1683160C14C03083128B0467
:0401300098286300A8
:02400E00393F38
:00000001FF
;PIC16F877
;CRC=97A5  CREATED="06-May-20 19:07"
